:100000000C942A000C94BE000C94F2000C94340062
:100010000C9434000C9434000C9434000C94340090
:100020000C9434000C9434000C9434000C94340080
:100030000C9434000C9434000C9434000C94340070
:100040000C9434000C9434000C9426010C9434006D
:100050000C94340011241FBECFE5D4E0DEBFCDBF29
:100060000E94A9000C945A010C940000DF93CF93D6
:10007000CDB7DEB7A5E3B0E0E5E3F0E080819181A4
:10008000816011969C938E93A5E3B0E0E5E3F0E0E8
:10009000808191818C6011969C938E93A4E3B0E053
:1000A000E4E3F0E08081918111969C938E93ABE321
:1000B000B0E0EBE3F0E080819181806E11969C933B
:1000C0008E937894CF91DF910895DF93CF93CDB73E
:1000D000DEB7A1E3B0E0E1E3F0E080819181806EE2
:1000E00011969C938E93A1E3B0E0E1E3F0E0808170
:1000F0009181837F11969C938E93CF91DF91089588
:10010000DF93CF93CDB7DEB7A7E3B0E0E7E3F0E04E
:10011000808191818B7F11969C938E93CF91DF91FB
:100120000895DF93CF9300D0CDB7DEB71A8219823E
:1001300005C089819A8101969A83898389819A81F0
:1001400023E0883E9207ACF30F900F90CF91DF91A0
:100150000895DF93CF93CDB7DEB70E9436000E949B
:1001600065000E948000A1E3B0E0E1E3F0E080815F
:1001700091818F7111969C938E93F5CF1F920F9260
:100180000FB60F9211242F933F934F935F936F936A
:100190007F938F939F93AF93BF93EF93FF93DF93DF
:1001A000CF93CDB7DEB7A1E3B0E0E1E3F0E080812B
:1001B0009181806211969C938E930E949100CF91C1
:1001C000DF91FF91EF91BF91AF919F918F917F91BF
:1001D0006F915F914F913F912F910F900FBE0F90B4
:1001E0001F9018951F920F920FB60F9211242F9304
:1001F0003F934F935F936F937F938F939F93AF93AF
:10020000BF93EF93FF93DF93CF93CDB7DEB7A1E317
:10021000B0E0E1E3F0E080819181806411969C93ED
:100220008E930E949100CF91DF91FF91EF91BF914A
:10023000AF919F918F917F916F915F914F913F917E
:100240002F910F900FBE0F901F9018951F920F9235
:100250000FB60F9211242F933F934F935F936F9399
:100260007F938F939F93AF93BF93EF93FF93DF930E
:10027000CF93CDB7DEB7A1E3B0E0E1E3F0E080815A
:100280009181806811969C938E930E949100CF91EA
:10029000DF91FF91EF91BF91AF919F918F917F91EE
:1002A0006F915F914F913F912F910F900FBE0F90E3
:0802B0001F901895F894FFCF90
:00000001FF
